{
  "contractName": "VaultManager",
  "abi": [
    {
      "constant": true,
      "inputs": [
        {
          "name": "",
          "type": "string"
        }
      ],
      "name": "vaultList",
      "outputs": [
        {
          "name": "",
          "type": "address"
        }
      ],
      "payable": false,
      "stateMutability": "view",
      "type": "function"
    },
    {
      "anonymous": false,
      "inputs": [
        {
          "indexed": false,
          "name": "name",
          "type": "string"
        },
        {
          "indexed": false,
          "name": "vaultAddress",
          "type": "address"
        }
      ],
      "name": "VaultAdded",
      "type": "event"
    },
    {
      "constant": false,
      "inputs": [
        {
          "name": "_name",
          "type": "string"
        }
      ],
      "name": "addNewVault",
      "outputs": [
        {
          "name": "",
          "type": "address"
        }
      ],
      "payable": false,
      "stateMutability": "nonpayable",
      "type": "function"
    },
    {
      "constant": true,
      "inputs": [],
      "name": "getVaults",
      "outputs": [
        {
          "name": "",
          "type": "address[]"
        }
      ],
      "payable": false,
      "stateMutability": "view",
      "type": "function"
    }
  ],
  "bytecode": "0x608060405234801561001057600080fd5b50610991806100206000396000f3fe608060405234801561001057600080fd5b50600436106100415760003560e01c80633f6378f41461004657806344d00f82146101415780637e1c8e2d146101a0575b600080fd5b6100ff6004803603602081101561005c57600080fd5b810190808035906020019064010000000081111561007957600080fd5b82018360208201111561008b57600080fd5b803590602001918460018302840111640100000000831117156100ad57600080fd5b91908080601f016020809104026020016040519081016040528093929190818152602001838380828437600081840152601f19601f82011690508083019250505050505050919291929050505061029b565b604051808273ffffffffffffffffffffffffffffffffffffffff1673ffffffffffffffffffffffffffffffffffffffff16815260200191505060405180910390f35b61014961048f565b6040518080602001828103825283818151815260200191508051906020019060200280838360005b8381101561018c578082015181840152602081019050610171565b505050509050019250505060405180910390f35b610259600480360360208110156101b657600080fd5b81019080803590602001906401000000008111156101d357600080fd5b8201836020820111156101e557600080fd5b8035906020019184600183028401116401000000008311171561020757600080fd5b91908080601f016020809104026020016040519081016040528093929190818152602001838380828437600081840152601f19601f82011690508083019250505050505050919291929050505061051d565b604051808273ffffffffffffffffffffffffffffffffffffffff1673ffffffffffffffffffffffffffffffffffffffff16815260200191505060405180910390f35b6000806102a6610566565b9050806001846040518082805190602001908083835b602083106102df57805182526020820191506020810190506020830392506102bc565b6001836020036101000a038019825116818451168082178552505050505050905001915050908152602001604051809103902060006101000a81548173ffffffffffffffffffffffffffffffffffffffff021916908373ffffffffffffffffffffffffffffffffffffffff16021790555060008190806001815401808255809150509060018203906000526020600020016000909192909190916101000a81548173ffffffffffffffffffffffffffffffffffffffff021916908373ffffffffffffffffffffffffffffffffffffffff160217905550507f4104dba30cb4c9a6b91a5229bc9214a5710fa836b100dffdd213346c0de42dcb838260405180806020018373ffffffffffffffffffffffffffffffffffffffff1673ffffffffffffffffffffffffffffffffffffffff168152602001828103825284818151815260200191508051906020019080838360005b8381101561044b578082015181840152602081019050610430565b50505050905090810190601f1680156104785780820380516001836020036101000a031916815260200191505b50935050505060405180910390a180915050919050565b6060600080548060200260200160405190810160405280929190818152602001828054801561051357602002820191906000526020600020905b8160009054906101000a900473ffffffffffffffffffffffffffffffffffffffff1673ffffffffffffffffffffffffffffffffffffffff16815260200190600101908083116104c9575b5050505050905090565b6001818051602081018201805184825260208301602085012081835280955050505050506000915054906101000a900473ffffffffffffffffffffffffffffffffffffffff1681565b600060405161057490610596565b604051809103906000f080158015610590573d6000803e3d6000fd5b50905090565b6103c2806105a48339019056fe608060405234801561001057600080fd5b506103a2806100206000396000f3fe608060405234801561001057600080fd5b50600436106100365760003560e01c80636d4ce63c1461003b578063b0c8f9dc146100be575b600080fd5b610043610179565b6040518080602001828103825283818151815260200191508051906020019080838360005b83811015610083578082015181840152602081019050610068565b50505050905090810190601f1680156100b05780820380516001836020036101000a031916815260200191505b509250505060405180910390f35b610177600480360360208110156100d457600080fd5b81019080803590602001906401000000008111156100f157600080fd5b82018360208201111561010357600080fd5b8035906020019184600183028401116401000000008311171561012557600080fd5b91908080601f016020809104026020016040519081016040528093929190818152602001838380828437600081840152601f19601f82011690508083019250505050505050919291929050505061021b565b005b606060008054600181600116156101000203166002900480601f0160208091040260200160405190810160405280929190818152602001828054600181600116156101000203166002900480156102115780601f106101e657610100808354040283529160200191610211565b820191906000526020600020905b8154815290600101906020018083116101f457829003601f168201915b5050505050905090565b80600090805190602001906102319291906102d1565b507f844e4fccb87d6d1843733397bf5d41ce3551716260f6e90263dbbed3bda32f4f816040518080602001828103825283818151815260200191508051906020019080838360005b83811015610294578082015181840152602081019050610279565b50505050905090810190601f1680156102c15780820380516001836020036101000a031916815260200191505b509250505060405180910390a150565b828054600181600116156101000203166002900490600052602060002090601f016020900481019282601f1061031257805160ff1916838001178555610340565b82800160010185558215610340579182015b8281111561033f578251825591602001919060010190610324565b5b50905061034d9190610351565b5090565b61037391905b8082111561036f576000816000905550600101610357565b5090565b9056fea165627a7a72305820ef99acdb672432090784f77e80ad82622f7f07d43be2c9483ecd602f4e44e3c50029a165627a7a72305820fca524ace467a61c05f63511eb1a792f746057d741feee3ab0e8bb67baecf9d90029",
  "source": "pragma solidity >=0.4.21 <0.6.0;\n\nimport \"./Vault.sol\";\n\n\ncontract VaultManager {\n\n  address[] private vaultAddressList;\n  mapping (string => address) public vaultList;\n\n  event VaultAdded(string name, address vaultAddress);\n\n  function addNewVault(\n    string memory _name\n  )\n    public\n    returns (address)\n  {\n    address _vaultAddress = createVault();\n\n    vaultList[_name] = _vaultAddress;\n    vaultAddressList.push(_vaultAddress);\n    emit VaultAdded(_name, _vaultAddress);\n\n    return _vaultAddress;\n  }\n\n  function getVaults()\n    public\n    view\n    returns (address[] memory)\n  {\n    return vaultAddressList;\n  }\n\n  function createVault()\n    private\n    returns (address _vaultAddress)\n  {\n\n    _vaultAddress = address(new Vault());\n  }\n}\n",
  "sourcePath": "/home/bbk-dev/git/vault-contract/contracts/VaultManager.sol",
  "compiler": {
    "name": "solc",
    "version": "0.5.8+commit.23d335f2.Emscripten.clang"
  },
  "schemaVersion": "3.0.16",
  "updatedAt": "2019-11-30T21:05:02.692Z",
  "devdoc": {
    "methods": {}
  },
  "userdoc": {
    "methods": {}
  }
}