{
  "contractName": "Vault",
  "abi": [
    {
      "anonymous": false,
      "inputs": [
        {
          "indexed": false,
          "name": "ipfsHash",
          "type": "string"
        }
      ],
      "name": "Added",
      "type": "event"
    },
    {
      "constant": false,
      "inputs": [
        {
          "name": "_ipfsHash",
          "type": "string"
        }
      ],
      "name": "add",
      "outputs": [],
      "payable": false,
      "stateMutability": "nonpayable",
      "type": "function"
    },
    {
      "constant": true,
      "inputs": [],
      "name": "get",
      "outputs": [
        {
          "name": "",
          "type": "string"
        }
      ],
      "payable": false,
      "stateMutability": "view",
      "type": "function"
    }
  ],
  "bytecode": "0x608060405234801561001057600080fd5b506103a2806100206000396000f3fe608060405234801561001057600080fd5b50600436106100365760003560e01c80636d4ce63c1461003b578063b0c8f9dc146100be575b600080fd5b610043610179565b6040518080602001828103825283818151815260200191508051906020019080838360005b83811015610083578082015181840152602081019050610068565b50505050905090810190601f1680156100b05780820380516001836020036101000a031916815260200191505b509250505060405180910390f35b610177600480360360208110156100d457600080fd5b81019080803590602001906401000000008111156100f157600080fd5b82018360208201111561010357600080fd5b8035906020019184600183028401116401000000008311171561012557600080fd5b91908080601f016020809104026020016040519081016040528093929190818152602001838380828437600081840152601f19601f82011690508083019250505050505050919291929050505061021b565b005b606060008054600181600116156101000203166002900480601f0160208091040260200160405190810160405280929190818152602001828054600181600116156101000203166002900480156102115780601f106101e657610100808354040283529160200191610211565b820191906000526020600020905b8154815290600101906020018083116101f457829003601f168201915b5050505050905090565b80600090805190602001906102319291906102d1565b507f844e4fccb87d6d1843733397bf5d41ce3551716260f6e90263dbbed3bda32f4f816040518080602001828103825283818151815260200191508051906020019080838360005b83811015610294578082015181840152602081019050610279565b50505050905090810190601f1680156102c15780820380516001836020036101000a031916815260200191505b509250505060405180910390a150565b828054600181600116156101000203166002900490600052602060002090601f016020900481019282601f1061031257805160ff1916838001178555610340565b82800160010185558215610340579182015b8281111561033f578251825591602001919060010190610324565b5b50905061034d9190610351565b5090565b61037391905b8082111561036f576000816000905550600101610357565b5090565b9056fea165627a7a72305820ef99acdb672432090784f77e80ad82622f7f07d43be2c9483ecd602f4e44e3c50029",
  "source": "pragma solidity >=0.4.21 <0.6.0;\n\n\ncontract Vault {\n\n  string ipfsHash;\n\n  event Added(string ipfsHash);\n\n  function add(string memory _ipfsHash)\n    public\n  {\n    ipfsHash = _ipfsHash;\n    emit Added(_ipfsHash);\n  }\n\n  function get()\n    public\n    view\n    returns (string memory)\n  {\n    return ipfsHash;\n  }\n}\n",
  "sourcePath": "/home/bbk-dev/git/vault-contract/contracts/Vault.sol",
  "compiler": {
    "name": "solc",
    "version": "0.5.8+commit.23d335f2.Emscripten.clang"
  },
  "schemaVersion": "3.0.16",
  "updatedAt": "2019-12-01T15:31:45.483Z",
  "devdoc": {
    "methods": {}
  },
  "userdoc": {
    "methods": {}
  }
}