{
  "contractName": "VaultManager",
  "abi": [
    {
      "constant": true,
      "inputs": [
        {
          "name": "",
          "type": "string"
        }
      ],
      "name": "vaultList",
      "outputs": [
        {
          "name": "",
          "type": "address"
        }
      ],
      "payable": false,
      "stateMutability": "view",
      "type": "function"
    },
    {
      "anonymous": false,
      "inputs": [
        {
          "indexed": false,
          "name": "name",
          "type": "string"
        },
        {
          "indexed": false,
          "name": "ipfsHash",
          "type": "string"
        },
        {
          "indexed": false,
          "name": "vaultAddress",
          "type": "address"
        }
      ],
      "name": "VaultAdded",
      "type": "event"
    },
    {
      "constant": false,
      "inputs": [
        {
          "name": "_name",
          "type": "string"
        },
        {
          "name": "_ipfsHash",
          "type": "string"
        }
      ],
      "name": "addNewVault",
      "outputs": [
        {
          "name": "",
          "type": "address"
        }
      ],
      "payable": false,
      "stateMutability": "nonpayable",
      "type": "function"
    },
    {
      "constant": true,
      "inputs": [],
      "name": "getVaults",
      "outputs": [
        {
          "name": "",
          "type": "address[]"
        }
      ],
      "payable": false,
      "stateMutability": "view",
      "type": "function"
    }
  ],
  "bytecode": "0x608060405234801561001057600080fd5b50610b6e806100206000396000f3fe608060405234801561001057600080fd5b50600436106100415760003560e01c8063086a2cd71461004657806344d00f82146101d85780637e1c8e2d14610237575b600080fd5b6101966004803603604081101561005c57600080fd5b810190808035906020019064010000000081111561007957600080fd5b82018360208201111561008b57600080fd5b803590602001918460018302840111640100000000831117156100ad57600080fd5b91908080601f016020809104026020016040519081016040528093929190818152602001838380828437600081840152601f19601f8201169050808301925050505050505091929192908035906020019064010000000081111561011057600080fd5b82018360208201111561012257600080fd5b8035906020019184600183028401116401000000008311171561014457600080fd5b91908080601f016020809104026020016040519081016040528093929190818152602001838380828437600081840152601f19601f820116905080830192505050505050509192919290505050610332565b604051808273ffffffffffffffffffffffffffffffffffffffff1673ffffffffffffffffffffffffffffffffffffffff16815260200191505060405180910390f35b6101e0610595565b6040518080602001828103825283818151815260200191508051906020019060200280838360005b83811015610223578082015181840152602081019050610208565b505050509050019250505060405180910390f35b6102f06004803603602081101561024d57600080fd5b810190808035906020019064010000000081111561026a57600080fd5b82018360208201111561027c57600080fd5b8035906020019184600183028401116401000000008311171561029e57600080fd5b91908080601f016020809104026020016040519081016040528093929190818152602001838380828437600081840152601f19601f820116905080830192505050505050509192919290505050610623565b604051808273ffffffffffffffffffffffffffffffffffffffff1673ffffffffffffffffffffffffffffffffffffffff16815260200191505060405180910390f35b60008061033e8361066c565b9050806001856040518082805190602001908083835b602083106103775780518252602082019150602081019050602083039250610354565b6001836020036101000a038019825116818451168082178552505050505050905001915050908152602001604051809103902060006101000a81548173ffffffffffffffffffffffffffffffffffffffff021916908373ffffffffffffffffffffffffffffffffffffffff16021790555060008190806001815401808255809150509060018203906000526020600020016000909192909190916101000a81548173ffffffffffffffffffffffffffffffffffffffff021916908373ffffffffffffffffffffffffffffffffffffffff160217905550507f20d8de860363d7606c0dd46bddba8066bb98c4ad072b0fd3a4e20dbc29e5ee578484836040518080602001806020018473ffffffffffffffffffffffffffffffffffffffff1673ffffffffffffffffffffffffffffffffffffffff168152602001838103835286818151815260200191508051906020019080838360005b838110156104e85780820151818401526020810190506104cd565b50505050905090810190601f1680156105155780820380516001836020036101000a031916815260200191505b50838103825285818151815260200191508051906020019080838360005b8381101561054e578082015181840152602081019050610533565b50505050905090810190601f16801561057b5780820380516001836020036101000a031916815260200191505b509550505050505060405180910390a18091505092915050565b6060600080548060200260200160405190810160405280929190818152602001828054801561061957602002820191906000526020600020905b8160009054906101000a900473ffffffffffffffffffffffffffffffffffffffff1673ffffffffffffffffffffffffffffffffffffffff16815260200190600101908083116105cf575b5050505050905090565b6001818051602081018201805184825260208301602085012081835280955050505050506000915054906101000a900473ffffffffffffffffffffffffffffffffffffffff1681565b60008060405161067b90610773565b604051809103906000f080158015610697573d6000803e3d6000fd5b5090508073ffffffffffffffffffffffffffffffffffffffff1663b0c8f9dc846040518263ffffffff1660e01b81526004018080602001828103825283818151815260200191508051906020019080838360005b838110156107065780820151818401526020810190506106eb565b50505050905090810190601f1680156107335780820380516001836020036101000a031916815260200191505b5092505050600060405180830381600087803b15801561075257600080fd5b505af1158015610766573d6000803e3d6000fd5b5050505080915050919050565b6103c2806107818339019056fe608060405234801561001057600080fd5b506103a2806100206000396000f3fe608060405234801561001057600080fd5b50600436106100365760003560e01c80636d4ce63c1461003b578063b0c8f9dc146100be575b600080fd5b610043610179565b6040518080602001828103825283818151815260200191508051906020019080838360005b83811015610083578082015181840152602081019050610068565b50505050905090810190601f1680156100b05780820380516001836020036101000a031916815260200191505b509250505060405180910390f35b610177600480360360208110156100d457600080fd5b81019080803590602001906401000000008111156100f157600080fd5b82018360208201111561010357600080fd5b8035906020019184600183028401116401000000008311171561012557600080fd5b91908080601f016020809104026020016040519081016040528093929190818152602001838380828437600081840152601f19601f82011690508083019250505050505050919291929050505061021b565b005b606060008054600181600116156101000203166002900480601f0160208091040260200160405190810160405280929190818152602001828054600181600116156101000203166002900480156102115780601f106101e657610100808354040283529160200191610211565b820191906000526020600020905b8154815290600101906020018083116101f457829003601f168201915b5050505050905090565b80600090805190602001906102319291906102d1565b507f844e4fccb87d6d1843733397bf5d41ce3551716260f6e90263dbbed3bda32f4f816040518080602001828103825283818151815260200191508051906020019080838360005b83811015610294578082015181840152602081019050610279565b50505050905090810190601f1680156102c15780820380516001836020036101000a031916815260200191505b509250505060405180910390a150565b828054600181600116156101000203166002900490600052602060002090601f016020900481019282601f1061031257805160ff1916838001178555610340565b82800160010185558215610340579182015b8281111561033f578251825591602001919060010190610324565b5b50905061034d9190610351565b5090565b61037391905b8082111561036f576000816000905550600101610357565b5090565b9056fea165627a7a72305820ef99acdb672432090784f77e80ad82622f7f07d43be2c9483ecd602f4e44e3c50029a165627a7a7230582089ce234d12d51cbc5253888b8d4d5a099e9eba505064c4ebf1aef64cec6631c30029",
  "source": "pragma solidity >=0.4.21 <0.6.0;\n\nimport \"./Vault.sol\";\n\n\ncontract VaultManager {\n\n  address[] private vaultAddressList;\n  mapping (string => address) public vaultList;\n\n  event VaultAdded(string name, string ipfsHash, address vaultAddress);\n\n  function addNewVault(\n    string memory _name,\n    string memory _ipfsHash\n  )\n    public\n    returns (address)\n  {\n    address _vaultAddress = createVault(_ipfsHash);\n\n    vaultList[_name] = _vaultAddress;\n    vaultAddressList.push(_vaultAddress);\n    emit VaultAdded(_name, _ipfsHash, _vaultAddress);\n\n    return _vaultAddress;\n  }\n\n  function getVaults()\n    public\n    view\n    returns (address[] memory)\n  {\n    return vaultAddressList;\n  }\n\n  function createVault(string memory _ipfsHash)\n    private\n    returns (address _vaultAddress)\n  {\n    Vault vault = new Vault();\n    vault.add(_ipfsHash);\n    _vaultAddress = address(vault);\n  }\n}\n",
  "sourcePath": "/home/bbk-dev/git/vault-contract/contracts/VaultManager.sol",
  "compiler": {
    "name": "solc",
    "version": "0.5.8+commit.23d335f2.Emscripten.clang"
  },
  "schemaVersion": "3.0.16",
  "updatedAt": "2019-12-01T15:34:28.697Z",
  "devdoc": {
    "methods": {}
  },
  "userdoc": {
    "methods": {}
  }
}